:100000000C9492010C94BA010C94BA010C94BA01AC
:100010000C94BA010C94BA010C94BA010C94BA0174
:100020000C94BA010C94BA010C94BA010C94BA0164
:100030000C94BA010C94BA010C94BA010C94BA0154
:100040000C94D11E0C94BA010C949F1E0C94791E32
:100050000C94BA010C94BA010C94BA010C94BA0134
:100060000C941B1F0C94BA010C94BA010C94BA01A5
:100070000C94471E0C94211E0C94BA010C94BA01E6
:100080000C94BA010C94BA010C94BA010C94BA0104
:100090000C94BA010C94BA010C94BA010C94BA01F4
:1000A0000C94BA010C94BA010C94BA010C94BA01E4
:1000B0000C94BA010A0D0E090003020000040508A1
:1000C0000000000000000000000000000000000030
:1000D00000C0C1C1810140C30103C00280C241C64A
:1000E0000106C00780C7410500C5C1C4810440CCDA
:1000F000010CC00D80CD410F00CFC1CE810E400A52
:1001000000CAC1CB810B40C90109C00880C841D8D1
:100110000118C01980D9411B00DBC1DA811A401EC9
:1001200000DEC1DF811F40DD011DC01C80DC4114E9
:1001300000D4C1D5811540D70117C01680D641D251
:100140000112C01380D3411100D1C1D0811040F001
:100150000130C03180F1413300F3C1F281324036C9
:1001600000F6C1F7813740F50135C03480F4413CD9
:1001700000FCC1FD813D40FF013FC03E80FE41FAD1
:10018000013AC03B80FB413900F9C1F88138402871
:1001900000E8C1E9812940EB012BC02A80EA41EE49
:1001A000012EC02F80EF412D00EDC1EC812C40E4E9
:1001B0000124C02580E5412700E7C1E681264022D1
:1001C00000E2C1E3812340E10121C02080E041A0A1
:1001D0000160C06180A1416300A3C1A28162406649
:1001E00000A6C1A7816740A50165C06480A4416CD9
:1001F00000ACC1AD816D40AF016FC06E80AE41AA51
:10020000016AC06B80AB416900A9C1A881684078D0
:1002100000B8C1B9817940BB017BC07A80BA41BEC8
:10022000017EC07F80BF417D00BDC1BC817C40B4E8
:100230000174C07580B5417700B7C1B68176407250
:1002400000B2C1B3817340B10171C07080B0415040
:100250000090C191815140930153C05280924196C8
:100260000156C057809741550095C1948154409CD8
:10027000015CC05D809D415F009FC19E815E405AD0
:10028000009AC19B815B40990159C0588098418870
:100290000148C0498089414B008BC18A814A404E48
:1002A000008EC18F814F408D014DC04C808C4144E8
:1002B0000084C185814540870147C04680864182D0
:1002C0000142C043808341410081C18081404000A0
:1002D0000000000000250028002B002E0000000078
:1002E00000240027002A002D000404040404040450
:1002F00004020202020202030303030303020203D5
:1003000005050505010204081020408001020408CB
:10031000102001020408102040804001020408005F
:1003200069204C2011241FBECFEFD8E0DEBFCDBF27
:1003300011E0A0E0B1E0E2EAF7E502C005900D921D
:10034000A434B107D9F723E0A4E4B1E001C01D92C1
:10035000A93AB207E1F711E0C1E9D1E004C0219761
:10036000FE010E94D329C039D107C9F70E94F321A9
:100370000C94C42B0C940000CF92DF92EF92FF926A
:100380000F931F93CF93DF93CDB7DEB72C970FB6A4
:10039000F894DEBF0FBECDBF90E080E02C960FB684
:1003A000F894DEBF0FBECDBFDF91CF911F910F91AB
:1003B000FF90EF90DF90CF900895880F8093BA0060
:1003C00008959B01AC0160E074E284EF90E00E942C
:1003D0002C272051310941095109569547953795E8
:1003E00027952093B8000895882321F085EC809309
:1003F000BC00089585E8FBCF85ED8093BC0080911B
:10040000BC0084FDFCCF1092BC01089585EC809364
:10041000BC001092BC01089590E0FC01EC5FFC4F21
:10042000249187519D4FFC018491882399F090E09D
:10043000880F991FFC01E352FD4FA591B491FC0177
:10044000EF52FD4F859194918FB7F894EC91E22B88
:10045000EC938FBF0895AF92BF92CF92DF92EF924D
:10046000FF920F931F93CF93DF93CDB7DEB72897FB
:100470000FB6F894DEBF0FBECDBF7C016A01CB0181
:1004800010E000E020913D03211130C020913B039A
:1004900030913C034091370350913803D80163E019
:1004A000AA0FBB1F6A95E1F7A40FB51F20173107EC
:1004B00000F11296AD90BC901397F70160817181A5
:1004C000A616B70679F41496AD90BC901597628184
:1004D0007381A616B70631F46D917C911197C616FB
:1004E000D70639F00F5F1F4F1896E0CF01E010E0FC
:1004F00019C02F5F3F4F02171307C0F4F80123E024
:10050000EE0FFF1F2A95E1F7E40FF51F28E0DE014B
:10051000119601900D922A95E1F7EF81F885BC01C3
:10052000C701099520913D0321110CC00F5F1F4F9A
:1005300020913B0330913C032F5F3F4F021713077D
:1005400008F4A0CF28960FB6F894DEBF0FBECDBF3B
:10055000DF91CF911F910F91FF90EF90DF90CF909F
:10056000BF90AF9008958095E82FF0E0EE0FFF1F49
:10057000E153FF4F859194919095DB01415068F0D4
:10058000ED91E927F0E0EE0FFF1FE153FF4F2591BA
:100590003491982F9327822FF1CF0895AF92BF9275
:1005A000CF92DF92EF92FF920F931F93CF93DF933F
:1005B0006C017B018B01040F151FEB015E01AE186E
:1005C000BF08C017D10759F06991D601ED91FC9190
:1005D0000190F081E02DC6010995892B79F7C501BD
:1005E000DF91CF911F910F91FF90EF90DF90CF900F
:1005F000BF90AF900895FC01538D448D252F30E0BE
:10060000842F90E0821B930B541710F0CF9608951F
:1006100001970895FC01918D828D981761F0A28D4C
:10062000AE0FBF2FB11D5D968C91928D9F5F9F7312
:10063000928F90E008958FEF9FEF0895FC01918DC8
:10064000828D981731F0828DE80FF11D858D90E035
:1006500008958FEF9FEF0895FC01918D228D892FD2
:1006600090E0805C9F4F821B91098F7399270895BA
:1006700089EF91E00E942C0321E0892B09F420E00E
:10068000822F089586E992E00E942C0321E0892BB5
:1006900009F420E0822F0895FC01A48DA80FB92F42
:1006A000B11DA35ABF4F2C91848D90E001968F739A
:1006B0009927848FA689B7892C93A089B1898C91B9
:1006C000837080648C93938D848D981306C0028808
:1006D000F389E02D80818F7D80830895EF92FF92D2
:1006E0000F931F93CF93DF93EC0181E0888F9B8D55
:1006F0008C8D98131AC0E889F989808185FF15C00F
:100700009FB7F894EE89FF896083E889F989808131
:100710008370806480839FBF81E090E0DF91CF9100
:100720001F910F91FF90EF900895F62E0B8D10E022
:100730000F5F1F4F0F731127E02E8C8D8E110CC091
:100740000FB607FCFACFE889F989808185FFF5CFDC
:10075000CE010E944C03F1CFEB8DEC0FFD2FF11D6C
:10076000E35AFF4FF0829FB7F8940B8FEA89FB8919
:1007700080818062CFCFCF93DF93EC01888D882377
:10078000B9F0AA89BB89E889F9898C9185FD03C0F4
:10079000808186FD0DC00FB607FCF7CF8C9185FFD9
:1007A000F2CF808185FFEDCFCE010E944C03E9CFCF
:1007B000DF91CF91089580E090E0892B29F00E948D
:1007C000420381110E94000080E090E0892B29F013
:1007D0000E94380381110C9400000895282F30E006
:1007E000F901EC54FF4F9491F901EC5FFC4F8491B7
:1007F00027513D4FF9012491222309F42EC099235A
:10080000D9F092509D30C0F4E92FF0E0E65FFB4F45
:100810000C94D3295004540417042E041C041C0403
:10082000320438043C0442041C0446044C049091F5
:1008300080009F7790938000E22FF0E0EE0FFF1F83
:10084000EF52FD4FA591B4919FB7F894EC916111CF
:100850002EC080958E238C939FBF08959091800029
:100860009F7DE8CF9091B0009F779093B000E4CF48
:100870009091B0009F7DF9CF909190009F779093D9
:100880009000DACF909190009F7DF9CF9091A000D9
:100890009F779093A000D0CF9091A0009F7DF9CF3B
:1008A00094B59F7794BDC8CF94B59F7DFBCF8E2B19
:1008B000D2CF1092BC0181E08093BE011092BD01A5
:1008C00061E082E10E94EE0361E083E10E94EE03B9
:1008D000E9EBF0E080818E7F808380818D7F808353
:1008E00088E48093B80085E48093BC000895ECEB25
:1008F000F0E080818A7B808360E082E10E94EE03E9
:1009000060E083E10C94EE033FB7F8948091C90155
:100910009091CA01A091CB01B091CC0126B5A89BC2
:1009200005C02F3F19F00196A11DB11D3FBFBA2F81
:10093000A92F982F8827BC01CD01620F711D811D41
:10094000911D42E0660F771F881F991F4A95D1F7C6
:1009500008958F929F92AF92BF92CF92DF92EF92C3
:10096000FF924B015C010E9484046B017C010E9498
:1009700084046C197D098E099F09683E73408105C6
:100980009105A8F321E0821A9108A108B10888EE28
:10099000C80E83E0D81EE11CF11C81149104A1044F
:1009A000B10429F7FF90EF90DF90CF90BF90AF9008
:1009B0009F908F9008952FB7F8946091C501709122
:1009C000C6018091C7019091C8012FBF0895209161
:1009D0009801260F3327331F21323105ECF4209183
:1009E000BC01FC0190E080E0243069F082E00895D1
:1009F000A09198012191AC0148585E4FA40FB52FEA
:100A0000B11D2C930196861798F380919801680F79
:100A10006093980180E0089581E008950F9341323A
:100A200008F044C09091BC019111FCCF92E09093EA
:100A3000BC010093BE019FEF9093BB017093C00176
:100A40006093BF011092C2014093C1011092C30193
:100A50009091C301880F892B8093C3018091BD01C0
:100A6000813011F51092BD018091C3018093BB00CC
:100A70008091BC0083FDF8CF85EC8093BC002223DD
:100A800021F08091BC018230D1F38091BB018F3F76
:100A900079F08091BB01803269F08091BB01803395
:100AA00059F084E00F91089585EEE7CF81E0FACF09
:100AB00080E0F8CF82E0F6CF83E0F4CF4132E0F57A
:100AC0009091BC019111FCCF91E09093BC012093D7
:100AD000BE012FEF2093BB017093C0016093BF0153
:100AE0001092C201240F2093C1019093C3019091F1
:100AF000C301880F892B8093C3018091BD01813090
:100B0000C9F41092BD018091C3018093BB00809114
:100B1000BC0083FDF8CF85EC8093BC008091BC01C4
:100B20008130E1F38091C201841710F44091C20139
:100B3000842F089585EEF0CF40E0FACFE0918D0349
:100B4000F0918E03309729F010928A0310928B0354
:100B500009940895DC0180918F0390919003892B73
:100B600019F190918503809186039817E8F090E041
:100B7000292F30E0261737076CF4FD01E20FF31F31
:100B80004081E0918303F0918403E20FF31F4083DF
:100B90009F5FEECF1092850360938603E0918F03F1
:100BA000F0919003CB01099408950895DC015096CB
:100BB000EC91509751968C915197E81748F41E96F6
:100BC0008D919C91E80FF92FF11D808190E008959F
:100BD0008FEF9FEF0895FC01908981892FEF3FEF00
:100BE000981740F4A685B785A90FB11D2C9130E068
:100BF0009F5F908BC9010895FC0181899089891BB1
:100C0000990B0895CF92DF92EF92FF920F931F936B
:100C1000CF93DF938C01CB017A01D80157962C91A9
:100C20005797222389F0EB016B01C40ED51ECC151A
:100C3000DD0579F06991D801ED91FC910190F08189
:100C4000E02DC8010995F3CF9896ED91FC91642FA2
:100C50000995C701DF91CF911F910F91FF90EF9000
:100C6000DF90CF900895CF93DF931F92CDB7DEB77B
:100C7000FC01698387898823F9F026898485958515
:100C80002817190654F081E090E09383828390E066
:100C900080E00F90DF91CF9108958981A589238904
:100CA0003489A20FB32FB11D8C9385898F5F858BFB
:100CB000868B81E090E0EDCF00A4F1A5E02D61E00E
:100CC000CE0101960995F5CF0F93CF93DF93EC01F9
:100CD0008B899C89EEA1FFA1062F21E04E89BC01E2
:100CE0008A8909951D8A1E8A1F8ADF91CF910F91EB
:100CF0000895CF93DF93EC018B81882399F0E981EC
:100D0000FA81888191E0978B828B158A168A61E03F
:100D1000CF010E94640691E0811190E0892FDF915C
:100D2000CF910895E981FA81108A118A158A168A6D
:100D3000048CF58DE02D099581E08B83CE010E9416
:100D40007906982F8111DBCFE9CF90E080E00895FC
:100D5000FC01AB01608171818281938122813381A9
:100D6000CA01820F931F0895CF93DF9380914403AC
:100D7000811122C0DA0140914203509143038091D6
:100D80003E0390913F03FC0130E020E0C081D1811F
:100D9000CA17DB0729F4C281D3816C177D0731F0B4
:100DA0002F5F3F4F36964217530780F7BA016F5FA8
:100DB0007F4F2617370718F090E080E00BC04217EE
:100DC0005307D0F366E0629FA001639F500D11248A
:100DD000840F951FDF91CF910895AB01BC0187E48B
:100DE00093E00E94B406009759F0FC01648175817C
:100DF00020914E03222331F041E050E00C942B026D
:100E000070E060E0CB01089543E050E060E070E006
:100E1000BA010C94ED06EF92FF920F931F93CF93BC
:100E20007A01AB01BC0187E493E00E94B4068C0117
:100E3000C0E0009761F0C0914E03CC2379F050E000
:100E400040E0B7010E942B02F801958384838C2F28
:100E5000CF911F910F91FF90EF900895FC01F582C3
:100E6000E482C1E0F4CF0F931F93AB0103E010E0E5
:100E700020E030E0B8011F910F910C940B072F92E6
:100E80003F924F925F926F927F928F929F92AF921A
:100E9000BF92CF92DF92EF92FF920F931F93CF9367
:100EA000DF935C012A01EB017901E60EF71E312C7C
:100EB0002224239410E000E0CE15DF05B9F165018E
:100EC000C00ED11E832CF601808190E0032C02C05D
:100ED000959587950A94E2F750E040E080FF02C0C4
:100EE00040E05FEFCE01B2010E940B07CE01B201DC
:100EF0000E94ED06F601208130E002C0359527956D
:100F00008A94E2F720FD0FC030E020E082179307BB
:100F100009F0212C3394F8E03F1203C00F5F1F4FFC
:100F2000312C2196C9CF20E03FEFF0CF822DDF9109
:100F3000CF911F910F91FF90EF90DF90CF90BF90D6
:100F4000AF909F908F907F906F905F904F903F9069
:100F50002F9008956F927F928F929F92AF92BF923F
:100F6000CF92DF92EF92FF920F931F93CF93DF9375
:100F700000D000D0CDB7DEB73C0149835A836B83E4
:100F80007C834901D12CCC24C394ED2CF12CE814A2
:100F9000F90430F58701000F111F060D171DF80128
:100FA000A080B180BA24AB24BA24B701CE01019647
:100FB0000E94A806A5010E940B07B701CE01019669
:100FC0000E94A8060E94ED06F80120813181322797
:100FD000232732278217930709F0C12CD394D5CF4A
:100FE0008C2D0F900F900F900F90DF91CF911F914C
:100FF0000F91FF90EF90DF90CF90BF90AF909F90B8
:101000008F907F906F900895FC0165A570E090E04F
:1010100080E0089560E070E0CB0108950F931F9386
:1010200080916303811104C080E01F910F910895A6
:101030000E9484040091640310916503209166036B
:1010400030916703601B710B820B930B6134724408
:101050008F40910548F3E0916803F0916903309760
:1010600059F050E040E070E060E084EE90E00995D7
:10107000109269031092680380916C0390916D0344
:101080000E94752A10926D0310926C0310926B03EC
:1010900010926A031092630381E0C7CFFF920F930F
:1010A0001F93CF93DF9300D01F92CDB7DEB78C0193
:1010B000F62EE0914503F09146030180F281E02D88
:1010C00002A0F3A1E02D60E87AE186E090E00995C6
:1010D00080E6F11001C080E48983C80124E0969580
:1010E00087952A95E1F78A830295007F0B8300910B
:1010F000450310914603F80184819581039750F4CC
:1011000080E00F900F900F90DF91CF911F910F9182
:10111000FF900895A181B281808191E057969C93C0
:10112000579752968C93529755961C925597569670
:101130001C925697ED91FC9111970280F381E02D5E
:1011400043E050E0BE016F5F7F4FCD0109950397EB
:10115000B9F661E0F801818192810E9464068111F3
:10116000CFCFE0914503F09146030180F281E02D5D
:1011700002A0F3A1E02D60EA76E881E090E0099515
:1011800081E0BFCFCF92DF92EF92FF920F931F9338
:10119000CF93DF93C090ED01D090EE01C091EB01B1
:1011A000D091EC01CC16DD0611F4E60121960091F8
:1011B000D5011091D60181E080938C0380E6809365
:1011C000870310928A0310928B0361E085E793E016
:1011D0000E946406811178C040918103509182037E
:1011E0004530510514F045E050E060918303709163
:1011F0008403E0919903F0919A0321E080E6099538
:101200001092850380938603853009F05DC0F12C30
:10121000E12C30E020E0A901980124503109410976
:101220005109BE0190E080E06C197D098E099F098B
:101230000E948F2920E130E040E050E00E94CB2660
:10124000C20ED31EE41EF51EC11480E1D806E104CF
:10125000F10434F0CC24CA948FE0D82EE12CF12C88
:10126000F7FE03C0C12CD12C760185E793E00E94E4
:10127000EB0585E793E00E94EB0585E793E00E948C
:10128000EB0585E793E00E94EB05182F85E793E0D7
:101290000E94EB0520E0312F22273F70282BC21639
:1012A000D30691F061E0C6010E944E0862E370E04F
:1012B00080E090E0DF91CF911F910F91FF90EF9030
:1012C000DF90CF900C94A904DF91CF911F910F91E3
:1012D000FF90EF90DF90CF900895CF93DF93C82FCA
:1012E000D62F8091490390914A030E94752A82E08B
:1012F00090E090934C0380934B030E94D929FC010A
:1013000090934A038093490381E0309721F0C058BD
:10131000C083D18383E080934D03DF91CF91089503
:101320008F929F92AF92BF92DF92EF92FF920F93B4
:101330001F93CF93DF9300D000D0CDB7DEB7FA0173
:101340003197ED37F10508F064C0FC01E095F095A8
:10135000E417F50708F45DC0D22E7A014B015C0159
:10136000BC01A40187E493E00E94B406892B09F430
:1013700050C08091490390914A030E94752A8701C9
:101380000F5F1F4F000F111F10934C0300934B036F
:10139000C8010E94D929FC0190934A038093490314
:1013A00084E090E0309729F1D08202500183898255
:1013B0009A82AB82BC828F010E5F1F4FB12CA12C91
:1013C000B501CE0101960E94A8060E94ED0698275D
:1013D00089279827F801819391938F01FFEFAF1A26
:1013E000BF0AEA14FB0461F783E080934D0390E0A9
:1013F00080E00F900F900F900F90DF91CF911F9191
:101400000F91FF90EF90DF90BF90AF909F908F90E3
:10141000089582E090E0EDCF2F923F924F925F923D
:101420006F927F928F929F92AF92BF92DF92EF92D4
:10143000FF920F931F93CF93DF93FA013197E03D13
:10144000F74008F091C08C01FC01E095F095E4179D
:10145000F50708F489C0D22E1A012B013C01BC010A
:10146000A20187E493E00E94B406892B09F47CC0B2
:101470008091490390914A030E94752AC10123E09B
:10148000969587952A95E1F7910127703327232BAD
:1014900009F04EC0029690934C0380934B03E0906A
:1014A0004B03F0904C03C7010E94D929EC019093A3
:1014B0004A038093490384E090E0209709F442C0F6
:1014C000D8828EEF8E0D8983EC0EFD1EF7013197C9
:1014D0001082260C371CD12CF12CE12C812C912C64
:1014E000540183940215130541F1C801B2010E9411
:1014F000ED06F7013296EC0FFD1FB501A4010D2C8E
:1015000004C0440F551F661F771F0A94D2F720812D
:1015100081159F4F79F4242B2083D39488E0D8122F
:1015200004C03FEFE31AF30AD12C0F5F1F4FDACF4D
:101530000396B1CF40952423EFCF83E080934D03F2
:1015400090E080E0DF91CF911F910F91FF90EF909D
:10155000DF90BF90AF909F908F907F906F905F9043
:101560004F903F902F90089582E090E0EBCF0F9343
:101570001F93CF93DF93CDB7DEB72A970FB6F894BA
:10158000DEBF0FBECDBF8B0123E030E038872F8355
:101590009A87898770E060E0CE0107960E94A806CE
:1015A000AB01BC0187E493E00E94B406892B09F0EB
:1015B00077C070E060E0CE0107960E94A8066983BC
:1015C0007A838B839C8380913E0390913F03892B88
:1015D00009F452C080914003909141039C01215035
:1015E0003109409142035091430342175307F0F0F1
:1015F000019626E0289FB001299F700D112480914B
:101600003E0390913F030E94FE2A009709F448C0D0
:1016100020914003309141032F5F3F4F30934103AE
:101620002093400390933F0380933E0380914403B3
:10163000811142C08091420390914303019690939F
:10164000430380934203409142035091430386E059
:10165000849F9001859F300D1124A0913E03B0918D
:101660003F03A20FB31F1E830D83FE01319601902D
:101670000D928A95E1F714C0809140039091410347
:1016800026E0AC01249FC001259F900D11240E94EB
:10169000D92990933F0380933E03892B09F09ACF79
:1016A00081E02A960FB6F894DEBF0FBECDBFDF9162
:1016B000CF911F910F91089510924403C4CF2F92A0
:1016C0003F924F925F926F927F928F929F92AF92D2
:1016D000BF92CF92DF92EF92FF920F931F93CF931F
:1016E000DF93CDB7DEB7AE970FB6F894DEBF0FBE6F
:1016F000CDBF86E992E00E942C031816190694F4D7
:1017000060E084E00E94EE030E94DB046C5E7F4F89
:101710008F4F9F4F60937401709375018093760192
:10172000909377018091550390915603DC01ED91E0
:10173000FC910084F185E02D099520914B033091B7
:101740004C0328173907C8F480915503909156032C
:10175000DC01ED91FC910084F185E02D09959093D9
:101760004C0380934B030E94840460935E03709348
:101770005F038093600390936103809162032091E3
:101780004B0330914C03232B09F076C481110E9446
:101790000E08C0907401D0907501E0907601F09031
:1017A0007701C114D104E104F10499F00E94DB0433
:1017B0006C157D058E059F0560F061E084E00E9458
:1017C000EE0310927401109275011092760110923E
:1017D000770184E190E00E9404071C01079740F024
:1017E00070E060E084E190E00E943307312C212C0E
:1017F0008AE090E00E9404072091630328171906ED
:10180000D1F08AE090E00E94040701E010E0009728
:1018100031F08C01883F910510F007EF10E0B8011E
:101820008AE090E00E943307602F90E080E00E9401
:10183000B926009363038BE090E00E940407209197
:10184000E9013091EA0182179307F9F08BE090E00B
:101850000E94040701E010E0009731F08C0185360A
:10186000910510F004E610E0B8018BE090E00E94D2
:1018700033071093EA010093E90142E050E066E08B
:1018800070E089EE91E00E94A9268CE090E00E9431
:1018900004079091F6019817E1F08CE090E00E9427
:1018A000040701E010E0009729F08C01409710F048
:1018B0000FE010E0B8018CE090E00E943307009345
:1018C000F601602F82E090E00E94B92681E08093CB
:1018D00006018DE090E00E9404079091F5019817B1
:1018E000C9F08DE090E00E9404078C0185369105D7
:1018F00010F004E610E0B8018DE090E00E9433079C
:101900000093F501602F84E090E00E94B92681E009
:10191000809306018EE090E00E9404072091E70189
:101920003091E8018217930789F18EE090E00E94E0
:1019300004078C01813E9E4210F000EE1EE28FE013
:1019400090E00E9404078017910779F48FE090E0FF
:101950000E94040701E010E0892B39F08FE090E04D
:101960000E9404078C0101501109B8018EE090E03B
:101970000E9433071093E8010093E70142E050E032
:1019800066E170E087EE91E00E94A9268FE090E08A
:101990000E9404072091E5013091E6018217930728
:1019A00079F18FE090E00E9404078C01813E9E4215
:1019B00010F000EE1EE28EE090E00E940407801717
:1019C000910769F48EE090E00E9404078C010F5F9C
:1019D0001F4F013E2EE2120710F000EE1EE2B8018A
:1019E0008FE090E00E9433071093E6010093E50139
:1019F00042E050E068E170E085EE91E00E94A926A7
:101A000080E190E00E9404072091F1013091F20101
:101A10008217930789F180E190E00E9404078C010E
:101A2000813E9E4210F000EE1EE281E190E00E94B5
:101A300004070817190778F081E190E00E94040775
:101A40000B9710F40C948B1781E190E00E9404072F
:101A50008C010A501109B80180E190E00E9433071F
:101A60001093F2010093F10142E050E06CE070E06D
:101A700081EF91E00E94A92681E190E00E94040795
:101A80002091EF013091F0018217930709F445C0CE
:101A900081E190E00E9404078C01813E9E4210F09B
:101AA00000EE1EE280E190E00E940407801791079B
:101AB00018F180E190E00E9404078C01065F1F4F3F
:101AC000013E5EE21507C0F066ED7EE280E190E047
:101AD0000E94330786ED9EE29093F2018093F1011C
:101AE0009A83898342E050E06CE070E0CE01019679
:101AF0000E94A92600EE1EE2B80181E190E00E945A
:101B000033071093F0010093EF0142E050E06EE0E4
:101B100070E08FEE91E00E94A92682E190E00E94A1
:101B200004072091ED013091EE018217930709F42B
:101B300044C082E190E00E9404078C01811590412D
:101B400010F00FEF1FE0B80182E190E00E94330730
:101B50001093EE010093ED0142E050E060E170E08F
:101B60008DEE91E00E94A9260E94C20881E028160D
:101B7000310419F581E080938C0380E6809387031C
:101B800010928A0310928B0361E085E793E00E9434
:101B9000640681110C94A51786E090E00E9404076A
:101BA000BC016D7F86E090E00E94330760E0809189
:101BB000ED019091EE010E944E0883E190E00E94B9
:101BC00004072091EB013091EC018217930709F48F
:101BD00045C083E190E00E9404078C01011590E16B
:101BE000190710F00FEF1FE0B80183E190E00E94A9
:101BF00033071093EC010093EB0142E050E062E107
:101C000070E08BEE91E00E94A9260E94C208A2E03B
:101C10002A16310419F581E080938C0380E68093C5
:101C2000870310928A0310928B0361E085E793E0AB
:101C30000E94640681110C94B11786E090E00E9426
:101C40000407BC016D7F86E090E00E94330760E0EE
:101C50008091EB019091EC010E944E0885E190E0AB
:101C60000E9404072091E3013091E4018217930759
:101C700009F445C085E190E00E9404078C01813E93
:101C80009E4210F000EE1EE286E190E00E94040702
:101C90008017910718F186E190E00E9404078C01FB
:101CA000065F1F4F013EEEE21E07C0F066ED7EE2CA
:101CB00086E190E00E94330786ED9EE29093E20178
:101CC0008093E1019A83898342E050E062E270E010
:101CD000CE0101960E94A92600EE1EE2B80185E120
:101CE00090E00E9433071093E4010093E30142E087
:101CF00050E060E270E083EE91E00E94A92686E168
:101D000090E00E9404072091E1013091E2018217E6
:101D1000930789F186E190E00E9404078C01813EDF
:101D20009E4210F000EE1EE285E190E00E94040762
:101D30000817190778F085E190E00E9404070B97D7
:101D400010F40C94BD1785E190E00E9404078C010B
:101D50000A501109B80186E190E00E943307109300
:101D6000E2010093E10142E050E062E270E081EEC6
:101D700091E00E94A92687E190E00E94040720914B
:101D8000DF013091E00182179307D1F087E190E005
:101D90000E9404078C01059710F004E010E0B801E0
:101DA00087E190E00E9433071093E0010093DF0188
:101DB00042E050E064E270E08FED91E00E94A926DD
:101DC00088E190E00E9404072091DD013091DE015E
:101DD0008217930749F188E190E00E9404070A976F
:101DE00030F46AE070E088E190E00E94330788E117
:101DF00090E00E9404078536910530F064E670E0BB
:101E000088E190E00E94330788E190E00E94040797
:101E10009093DE018093DD0142E050E066E270E0E5
:101E20008DED91E00E94A92689E190E00E940407CF
:101E30002091DB013091DC018217930741F189E1A8
:101E400090E00E940407892B31F461E070E089E1A1
:101E500090E00E94330789E190E00E940407C39755
:101E600030F062E370E089E190E00E94330789E19D
:101E700090E00E9404079093DC018093DB0142E034
:101E800050E068E270E08BED91E00E94A9268AE1C3
:101E900090E00E9404072091D9013091DA01821765
:101EA0009307D1F08AE190E00E9404078C014597E6
:101EB00010F004E110E0B8018AE190E00E943307DD
:101EC0001093DA010093D90142E050E06CE270E037
:101ED00089ED91E00E94A9268BE190E00E94040721
:101EE0002091D7013091D80182179307D1F08BE16F
:101EF00090E00E9404078C01459710F004E110E087
:101F0000B8018BE190E00E9433071093D801009351
:101F1000D70142E050E06EE270E087ED91E00E9470
:101F2000A9268CE190E00E9404072091D501309110
:101F3000D60182179307E1F08CE190E00E9404073C
:101F40008C01459710F004E110E0B8018CE190E0BD
:101F50000E9433071093D6010093D50142E050E070
:101F600060E370E085ED91E00E94A9260E94C2081E
:101F70006091E9017091EA016115710511F461E068
:101F800070E088EE93E00E94AB298B010E94DB0495
:101F9000C090CD01D090CE01E090CF01F090D00163
:101FA0006C197D098E099F096801F12CE12C6C15D3
:101FB0007D058E059F05F8F00E94DB046093CD013E
:101FC0007093CE018093CF019093D00180910D0149
:101FD00090910E01A0910F01B091100189839A8315
:101FE000AB83BC8344E050E0BE016F5F7F4F89EF5D
:101FF00091E00E94CE029801A3E0B0E00E944E273B
:102000007B018C010E94DB048090D1019090D20171
:10201000A090D301B090D401AB01BC01481959097B
:102020006A097B09C701D801883E03E09007A10532
:10203000B10520F488EE93E0A0E0B0E084179507A6
:10204000A607B70710F00C94F71786E090E00E94FF
:102050000407BC01616086E090E00E94330789EFCD
:1020600091E00E942C03181619060CF0A0C789EF06
:1020700091E00E940A03F3CF882309F46BC00E9409
:10208000840400915E0310915F03209160033091FE
:102090006103601B710B820B930B00915A0310912B
:1020A0005B0320915C0330915D0360177107820729
:1020B000930708F46ECB8091550390915603DC0191
:1020C000ED91FC910284F385E02D099580937403D2
:1020D00020914B0330914C032150310930934C0334
:1020E00020934B0390916203992331F09091630305
:1020F000992311F40C94F31D11E081110C94F61D39
:102100008091490390914A030E94752A80914B0364
:1021100090914C030E94D92990934A0380934903DC
:1021200000E0892B09F06EC010E080914B03909184
:102130004C031817190608F00EC1809155039091B1
:102140005603DC01ED91FC910284F385E02D0995A5
:102150001F5FEBCF0E9484046B017C010E9484040A
:1021600000915E0310915F03209160033091610341
:10217000601B710B820B930B00915A0310915B0350
:1021800020915C0330915D0360177107820793070C
:1021900008F091CF8091550390915603DC01ED91A9
:1021A000FC910084F185E02D099520914B0330913D
:1021B0004C0328173907C8F48091550390915603B2
:1021C000DC01ED91FC910084F185E02D099590935F
:1021D0004C0380934B030E94840460935E037093CE
:1021E0005F0380936003909361030E9484046C19E1
:1021F0007D098E099F09613A76488140910508F46E
:10220000ADCFC7CAE02EF12C80914B0390914C03C7
:10221000E816F906A0F48091550390915603DC016D
:10222000ED91FC910284F385E02D0995E09149033D
:10223000F0914A03EE0DFF1D80830F5FE3CF6091A5
:10224000490370914A03AC0142505109FB01E40F6C
:10225000F51FE080860F971FFC0131978081FE2CCF
:10226000E82E50934C0340934B03809174030E94DB
:10227000B302E816F90609F064C087EE80934D03B7
:10228000E0914F03F09150032091490330914A03AC
:10229000309711F40C941C1E80917403909162038A
:1022A00041E094278A839983AE014F5F5F4F60912D
:1022B0004B03C901099580934D03112309F43EC0D6
:1022C0006090490370904A038091620381114AC073
:1022D00080914D03875E823008F033C0F301908116
:1022E000A180B280BA24AB24BA248181282F30E0A7
:1022F00083809480982489249824EFEFE90FE731B4
:1023000008F0E8C5F0E0E957FE4E0C94D329EE132F
:102310002F1411137314B714BB126A176A176A17B4
:102320006A176A176A176A176A17111555136A1719
:102330006A176A17B115F3157816E516883E09F481
:10234000BFCF8091490390914A030E94752A109251
:102350004A031092490310924C0310924B03809150
:10236000620314CAD301EC919E2F9F77A0916C0356
:10237000B0916D038C91981385C080914D03875E59
:10238000823008F05DC000916A0310916B034091A8
:102390006E0350916F036091700370917103E7FFBA
:1023A00005C0F301818180934D034AC0E91711F004
:1023B00082EEF9CF10924D0313962D913C91322766
:1023C00023273227E150E73108F0D3C0F0E0E55190
:1023D000FE4E0C94D329461246120212021220120B
:1023E0002012B912B912B912B912B912B912B9122E
:1023F000B91220122012B912B912B9128112201288
:1024000020120212D3011196EC91C901880F991F75
:10241000E817190609F0CCCFC30102960115110582
:1024200069F0FC01D8012150310950F0819191915E
:102430009827892798278D939D93F5CF0E94AA0707
:10244000E0916803F0916903309761F080914D034A
:1024500050E040E070E060E090E009951092690380
:102460001092680380916C0390916D030E94752A0D
:1024700010926D0310926C0310926B0310926A031A
:102480001092630381E080934D035BCFF901A3E0D9
:10249000F695E795AA95E1F78E2FD901A770BB278E
:1024A000AB2B11F081E08E0FD30111969C91981304
:1024B0007FCF0115110501F1F801B801620F731FFB
:1024C00030E050E040E0E617F70709F4B9CFD30158
:1024D000A40FB51F12968C9190E0032E02C0959523
:1024E00087950A94E2F7817081933F5F383059F7FE
:1024F0004F5F5F4F30E0E7CFC30102960E943F0776
:102500009FCFF301818199EF980F9F3E10F083E0F8
:102510004ACF7301F2E0EF0EF11C680E711CE61455
:10252000F70408F08DCFD70111968C911197863062
:1025300071F74C9189EF840F8F3E48F750E0C70147
:10254000840F951F6816790610F3B7016E5F7F4FF1
:10255000C8010E94BB2BF701208130E02F5F3F4F65
:10256000E20EF31ED7018C918150990B080F191FB1
:10257000D6CF81EE18CFE0915103F091520363E082
:10258000762E612CC72C79826A82EA2CBC82AB82BF
:10259000082D9E828D82D12CFC801E812F81388552
:1025A00049855A856B857C8586E090E00995BC015C
:1025B000892B61F463E070E080E090E0C501A40144
:1025C0000E940B07811107C062E070E086E090E096
:1025D0000E946D091CC363E070E080E090E0C501DB
:1025E0000E94ED0664E070E08816990679F782E0B3
:1025F00080934D03E0915303F091540379826A82F2
:10260000BC82AB829E828D82D62CFC801E812F8163
:10261000388549855A856B857C8586E090E00995EB
:10262000F6C2E0915103F091520353E0752E612CF4
:10263000C72C79826A82EA2CBC82AB82082D9E82EA
:102640008D82D12CFC801E812F81388549855A8549
:102650006B857C8583E090E00995009721F0BC01B3
:1026600083E090E0B5CF63E070E080E090E0C501EA
:1026700023E030E0A4010E949009009781F7E091E7
:102680005303F091540379826A82BC82AB829E82AA
:102690008D82D62CFC801E812F81388549855A85F4
:1026A0006B857C8583E090E0BACFE0915103F09197
:1026B000520383E0C82E89831A82EA2CBC82AB8243
:1026C000082D9E828D82D12CFC801E812F81388521
:1026D00049855A856B857C8580E190E00995BC0130
:1026E000892BB1F4C40101978D37910578F4C501A8
:1026F000809590958815990548F0D30115962C91F1
:10270000C401880F991F2817190629F063E070E0AB
:1027100080E190E05DCF512C412C03E010E01A8362
:102720000983BC82AB82B201CE0101960E94A80649
:10273000AB01BC0187E493E00E94B406892B19F435
:1027400062E070E0E5CFBFEF4B1A5B0A841495049A
:1027500031F743E050E060E070E0B5019401C3015F
:1027600006960E94AA0764E070E0882389F28091AF
:10277000490390914A030E94752A85E090E0909366
:102780004C0380934B030E94D929FC0190934A0388
:1027900080934903892B31F080E18083B182A2824A
:1027A0001382448283E080934D03E0915303F091C0
:1027B0005403C82E89831A82EA2CBC82AB82042D72
:1027C0005E824D82D12CFC801E812F813885498507
:1027D0005A856B857C8580E190E021CFE0915103A3
:1027E000F09152031A821982EA2CBC82AB82082D26
:1027F0009E828D82C12CDA80FC801E812F813885DB
:1028000049855A856B857C8581E090E00995009724
:1028100021F0BC0181E090E0DBCE60E070E0CB0114
:10282000C50121E030E0A4010E940C0A009789F75D
:10283000E0915303F09154031A821982BC82AB8257
:102840009E828D82C12CDA80FC801E812F8138858A
:1028500049855A856B857C8581E090E0E0CEE091EA
:102860005103F091520377247394612CC72C798221
:102870006A82EA2CBC82AB82082D9E828D82D12C8A
:10288000FC801E812F81388549855A856B857C8522
:1028900082E090E00995009721F0BC0182E090E091
:1028A00097CE61E070E080E090E0C50122E030E08A
:1028B000A4010E940C0A009781F7E0915303F09164
:1028C000540379826A82BC82AB829E828D82D62C2E
:1028D000FC801E812F81388549855A856B857C85D2
:1028E00082E090E09CCEE0915103F091520332E0FF
:1028F000732E612CC72C79826A82EA2CBC82AB824F
:10290000082D9E828D82D12CFC801E812F813885DE
:1029100049855A856B857C8584E090E00995009710
:1029200021F0BC0184E090E053CE62E070E080E0F2
:1029300090E0C50124E030E0A4010E9490090097D6
:1029400081F7E0915303F091540379826A82BC824B
:10295000AB829E828D82D62CFC801E812F81388591
:1029600049855A856B857C8584E090E058CEE0915E
:102970005103F09152031A821982EA2CBC82AB8275
:10298000082D9E828D82C12CDA80FC801E812F81D1
:10299000388549855A856B857C8585E090E0099569
:1029A000BC01892BF9F48114EFEF9E0629F063E056
:1029B00070E081149104B1F460E070E0CB01C501D6
:1029C000A4010E940B0762E070E0882359F060E0E8
:1029D00070E0CB01C5010E94ED068816990629F02A
:1029E00064E070E085E090E0F3CD82E080934D03F9
:1029F000E0915303F09154031A821982EA2CBC82AD
:102A0000AB82082D9E828D82C12CDA80FC801E81D3
:102A10002F81388549855A856B857C8585E090E0D6
:102A2000FECDE0915103F09152031A821982EA2CF3
:102A3000BC82AB82082D9E828D82C12CDA80FC8004
:102A40001E812F81388549855A856B857C858FE06D
:102A500090E00995BC01892B01F5C40123E096950E
:102A600087952A95E1F7940127703327232B09F0E6
:102A70000196940121503109203D374060F49501C1
:102A8000209530952815390530F0D30115962C91F5
:102A90002817190629F063E070E08FE090E098CDE8
:102AA000D12CC12C1A821982BC82AB82B601CE0114
:102AB00001960E94A806AB01BC0187E493E00E9446
:102AC000B406892B19F462E070E0E7CFBFEFCB1AB0
:102AD000DB0A8C149D0431F740E050E0BA01B501E7
:102AE0009401C30106960E943F07811103C064E070
:102AF00070E0D3CF8091490390914A030E94752AD8
:102B000085E090E090934C0380934B030E94D92979
:102B1000FC0190934A0380934903892B31F08FE0A5
:102B20008083B182A282D382C48283E080934D03EA
:102B3000E0915303F09154031A821982EA2CBC826B
:102B4000AB820C2DDE82CD82C12CDA80FC801E810E
:102B50002F81388549855A856B857C858FE090E08B
:102B60005ECD99EF980F63E070E09F3E88F5F3012A
:102B7000329667E00E949F2902E090E043815481F1
:102B8000542745275427258136813227232732278A
:102B90006081663019F44031574218F062E070E00D
:102BA00017C02F5F3F4F220F020F37969F5F891389
:102BB000E5CF10E0C8010E94D92990934A03809381
:102BC0004903892B41F4C3010E94752A64E070E037
:102BD00084E190E0FDCC10934C0300934B03C301C0
:102BE0000E94752ADBCF895063E070E0833F48F490
:102BF000C3010296620E731E8615970528F462E0E3
:102C000070E085E190E0E4CC82E080934D03B090E9
:102C10007403B11003C081E080934D0380914D0394
:102C2000813009F48ECBE0904903F0904A03009183
:102C30004B0310914C03402FB7018B2D0E94B30220
:102C4000D82EC92E809157039091580397FD06C046
:102C5000609159030E94EE030E9447208091550322
:102C600090915603DC01ED91FC910190F081E02DF3
:102C70006B2D09958091550390915603A801552716
:102C8000DC01ED91FC910280F381E02DB701099503
:102C90008091550390915603DC01ED91FC910190D8
:102CA000F081E02D6C2D099580915503909156038C
:102CB000DC01ED91FC910190F081E02D6D2D0995E5
:102CC0008091550390915603DC01ED91FC910680B3
:102CD000F781E02D0995809157039091580397FD56
:102CE00030CB6091590391E069270E94EE0329CB14
:102CF000D30115966D907C90762467247624E0911C
:102D00005103F091520303E0502E412CC52C5982FF
:102D10004A82EA2CBC82AB82082D9E828D82262DAF
:102D200078866F82D12CFC801E81388549855A8532
:102D30006B857C8586E190E00995BC01892B31F596
:102D400063E070E080E090E0C5010E94ED0686251A
:102D500097258821992183010827192763E070E0CE
:102D600080E090E0C501A8010E940B0762E070E0DE
:102D7000882361F063E070E080E090E0C5010E948C
:102D8000ED060817190729F064E070E086E190E08D
:102D90001FCC82E080934D03E0915303F0915403E4
:102DA00059824A82BC82AB82082D9E828D82262D5A
:102DB00078866F82D42CFC801E81388549855A859F
:102DC0006B857C8586E190E02ACCF30125803680F6
:102DD000322423243224478050845424452454240C
:102DE000E0915103F091520313E0C12EC9821A827F
:102DF000EA2CBC82AB82082D9E828D8223E02F8339
:102E00001886422D3A862986642D5C864B86D12C05
:102E1000FC801E8130E05A857C8587E190E0099531
:102E2000009711F0BC011BC0C40101978D379105BB
:102E3000A0F4C20101978D37910578F4C501809502
:102E400090958815990548F0D30119962C91C201E7
:102E5000880F991F2817190629F063E070E087E1B1
:102E600090E0B6CB43E050E060E070E0B101920149
:102E7000C3010A960E94AA0764E070E0882379F3F0
:102E800063E070E080E090E0C50127E130E0A4015C
:102E90000E949009009731F6E0915303F09154039A
:102EA000A3E0CA2EC9821A82BC82AB829E828D8226
:102EB00023E02F831886422D3A862986642D5C866E
:102EC0004B86D12CFC801E8130E05A857C8587E1C1
:102ED00090E0A5CBA92EB12CE0915103F0915203C3
:102EE000BFEF6B1A7B0AC62C7A826982DA80EB808C
:102EF000FC800D811E812F81388549855A856B851F
:102F00007C85C5010995873E910509F480CE61E075
:102F100070E0C5015DCB6AE070E081E190E00E9465
:102F200033078AE090E09093F0018093EF019A8359
:102F3000898342E050E06EE070E0CE0101960E948D
:102F4000A92610E000E00C942B0D86E090E00E9492
:102F50000407BC01626086E090E00E9433070C9495
:102F6000DD0D86E090E00E940407BC01626086E00F
:102F700090E00E9433070C942E0E6AE070E085E129
:102F800090E00E9433078AE090E09093E401809300
:102F9000E3019A83898342E050E060E270E0CE0171
:102FA00001960E94A92610E000E00C94AA0E10924F
:102FB00073011092720186E0E1E1F1E0DE01119609
:102FC00001900D928A95E1F746E050E0BE016F5FF7
:102FD0007F4F89EF91E00E94CE020E94DB04609354
:102FE000D1017093D2018093D3019093D40112E068
:102FF00001E089EF91E00E942C03181619060CF0ED
:1030000059C389EF91E00E940A03909173019130B6
:1030100009F4F1C008F4E7C0923059F7E091720169
:1030200091E09E0F90937201F0E0E65BFE4F80838B
:103030009930F8F210927301EAE4F1E030E020E018
:103040008191280F311D41E0E235F407C9F78091E5
:10305000520190E02817190661F6E0904D01F12C1D
:10306000FE2CEE2480914C01E80EF11CC0904F0123
:10307000D12CDC2CCC2480914E01C80ED11C609147
:103080005101862F90E0982F882760915001680F9A
:10309000792F711D77FF02C0695F7F4F43E07595FF
:1030A00067954A95E1F78B011A950E94DB046093BE
:1030B000D1017093D2018093D3019093D40186E023
:1030C00090E00E940407BC016E7F86E090E00E94C1
:1030D0003307B60181E090E00E943307B80182E037
:1030E00090E00E943307C70101978F3A944008F09F
:1030F000E1C28AE08E9D80018F9D100D1124F09019
:10310000F601FF2009F483C06FE06F1510F43FE073
:10311000F32E809106018823D1F0E4E5F1E082E707
:1031200091E0019311938E179F07D9F710925301E5
:10313000B80190E080E00E947028609302017093D3
:103140000301809304019093050110920601809180
:10315000530190E0FC01EE0FFF1FEC5AFE4F11836C
:1031600000832F2D30E00196B9010E94BF29809382
:103170005301A4E5B1E0FE013196B12C3F014D9120
:103180005D9141935193B394FB10F9CF912CA90118
:1031900041505109692D70E064177507ECF5A12CB9
:1031A0006901C61AD70A81E0C81AD108EA2DF0E0F1
:1031B000EC15FD057CF5DF01AA0FBB1FA60DB71DA1
:1031C0006D917C9111973196EE0FFF1FE60DF71D63
:1031D000E080F180E616F70620F4ED92FC92718310
:1031E0006083A394E3CF893509F003CF80934A012C
:1031F00000937301FECE893539F480934B0110930F
:10320000720110937301F5CE10927301F2CEFF2478
:10321000F3947FCF9394BECF92E09B1508F09EC2AB
:1032200020E060E070E0CB0131E0320FE32FF0E00E
:10323000E417F5076CF4EE0FFF1FE60DF71D019084
:10324000F081E02D6E0F7F1F811D911D232FECCF8C
:1032500030E050E040E00E942C2789016091F501A8
:1032600070E090E080E00E9470289B01AC0160E07B
:1032700070E088EC92E40E945D2720E030E048ECAA
:1032800052E40E94CF276B017C012AE037ED43E234
:103290005CE30E94CA2787FF08C05AE0C52E57ED9D
:1032A000D52E53E2E52E5CE3F52EA701960160E0F2
:1032B00070E080E89FE30E945D2720910201309139
:1032C000030140910401509105010E9422294B0104
:1032D0005C01B80190E080E00E947028A70196018F
:1032E0000E9422299B01AC01C501B4010E945E2706
:1032F0006093020170930301809304019093050190
:1033000020E030E040E05FE30E945E270E94412819
:103310006B01B3E02B16310409F02CC278A36F8F38
:1033200042E050E06CE170E0CE014F960E94A92689
:1033300070E060E084E190E00E943307A091F30127
:10334000B091F40196010E944E2728EE33E040E050
:1033500050E00E942C27C090F701D090F8010D2C6E
:10336000000CEE08FF08C20ED31EE41EF51E21EE6F
:10337000C2162EE2D206E104F10434F030EEC32E80
:103380003EE2D32EE12CF12CF7FE03C0C12CD12C50
:1033900076018601B60190E080E00E94330735E0B7
:1033A0002316310409F087C2D8A2CF8E8091E101A3
:1033B0009091E2018C159D05D0F00B30110508F4B9
:1033C00071C20A5011091093E2010093E10142E039
:1033D00050E062E270E081EE91E00E94A9266091E7
:1033E000E1017091E20186E190E00E94330742E042
:1033F00050E060E270E0CE014F960E94A9266F8DEA
:1034000078A17093E4016093E30185E190E00E946C
:10341000330770E060E084E190E00E943307312CD4
:10342000212C8090E3019090E4014090E1015090C4
:10343000E2014814590408F082C2B12CA12CC8142E
:10344000D904EA04FB040CF07AC2712C612C4C14F0
:103450005D046E047F040CF075C2A50194012C1963
:103460003D094E095F09A4E6B0E00E94EA26A501E5
:10347000940124193509460957090E942C273AA7B7
:1034800029A769A57AA584E090E00E94330785E02A
:1034900090E00E9404079EA78DA78091DD01909186
:1034A000DE010DA51EA5012B09F051C231E020E07F
:1034B00009A51AA50817190708F430E03DA72EA79B
:1034C0006DA57EA585E090E00E94330721143104AC
:1034D00009F0F0C00091ED011091EE012091EB0197
:1034E0003091EC013EA32DA30217130729F4A80184
:1034F0004F5F5F4F5EA34DA38091DF019091E0018C
:103500002801712C612CADA1BEA14D01B12CA12CC3
:1035100084189508A608B708009709F02BC2809177
:10352000F1019091F201E091EF01F091F0018E171D
:103530009F0711F4FC0131969C0150E040E029A75F
:103540003AA74BA75CA7A701960189A59AA5ABA5A9
:10355000BCA5281B390B4A0B5B0BC501B4010E94AB
:103560008F299F0150E040E0C9A4DAA4EBA4FCA499
:103570002C193D094E095F090E94CB26BA01A90109
:10358000440D551D661D771DEDA0FEA00E151F05EF
:1035900030F09DA18EA11EA30DA3092F182FC801E5
:1035A000B0E0A0E0481759076A077B0764F00DA157
:1035B0001EA1C801B0E0A0E0481759076A077B07C1
:1035C00014F4DB01CA018C019C01AD0124193509F9
:1035D00046095709A0E4B6E00E94EA26A501940135
:1035E0000E94CB26DA01C90180579E4FAF4FBF4FD3
:1035F000813D27E09207A105B10524F080ED97E019
:10360000A0E0B0E0803931E09307A105B10524F4D2
:1036100080E991E0A0E0B0E07C0181E080938C0340
:1036200080E68093870310928A0310928B0361E0F7
:1036300085E793E00E946406882309F4B3C286E01C
:1036400090E00E940407BC01626086E090E00E9466
:1036500033078091DF019091E001049731F130E070
:1036600020E0A90198012419350946095709A0E469
:10367000B6E00E94EA26A50194010E94CB26DA0159
:10368000C90180579E4FAF4FBF4F813D57E095070F
:10369000A105B10524F080ED97E0A0E0B0E0B7FF10
:1036A00003C080E090E0DC017C01B70183E090E0A2
:1036B0000E943307809100019091010182159305CA
:1036C000A1F1C1010197029760F5E090ED01F09042
:1036D000EE0100E911E061E02616310431F0E090DE
:1036E000EB01F090EC0100ED17E081E080938C039A
:1036F00080E68093870310928A0310928B0361E027
:1037000085E793E00E946406882309F45AC286E0A4
:1037100090E00E940407BC01626086E090E00E9495
:1037200033073092010120920001AE960FB6F89453
:10373000DEBF0FBECDBFDF91CF911F910F91FF90E4
:10374000EF90DF90CF90BF90AF909F908F907F9041
:103750006F905F904F903F902F900895A2E0BA1223
:103760007DCD09811A812B813C81020F131F169593
:10377000079574CDE4E02E16310409F0DFCD42E068
:1037800050E06CE170E0CE0183960E9491268EE0BD
:1037900090E00E9404074C018FE090E00E94040733
:1037A0002601712C612C2BA13CA1421A530A6108FD
:1037B000710809F46EC0B12CA12CB0E0A0E09C010E
:1037C000AD01281939094A095B09A8EEB3E00E9446
:1037D000EA26A30192010E94CB2621153105F1E0D2
:1037E0004F07510524F02FEF3FEF40E050E0290153
:1037F0003A01141415041604170424F0412C512C1A
:10380000320143945AA249A242E050E06AE070E0DB
:10381000CE0181960E94A92689A19AA19093F401D4
:103820008093F301ABA1BCA1A30192010E94EA26FF
:1038300028E13CEF4FEF5FEF0E94CB26DA01C90190
:10384000880D991DAA1DBB1D811500E89007A105D3
:10385000B10524F08FEF9FE7A0E0B0E0811510E8FC
:1038600091071FEFA107B10724F480E090E8AFEFC4
:10387000BFEF98A38F8F42E050E068E070E0CE0188
:103880004F960E94A9268F8D98A19093F80180935E
:10389000F70170E060E084E190E00E9433070E944D
:1038A000C2084CCD8AE090E098A38F8F1092E2017D
:1038B0001092E1018CCD46E02416310409F0B1CD1F
:1038C0008091E3019091E401D8A2CF8EC816D90669
:1038D000D0F0065F1F4F013E5EE2150728F51093FA
:1038E000E4010093E30142E050E060E270E083EE27
:1038F00091E00E94A9266091E3017091E40185E1C5
:1039000090E00E94330742E050E062E270E0CE01B6
:103910004F960E94A9266F8D78A17093E201609363
:10392000E10186E190E073CD80EE9EE29093E401A8
:103930008093E30186ED9EE298A38F8FD4CF1AA6E1
:1039400019A69FCD04E610E01AA709A79ACD2091E9
:10395000DB013091DC01821B930B97FF02C090E0EA
:1039600080E009A51AA50817190708F0A9CD1EA619
:103970001DA6A6CD8130910551F5A9A5BAA5A50131
:1039800094010E94EA2624E630E040E050E00E94E4
:10399000CB26BA01A901440D551D661D771DCDA08A
:1039A000DEA00C151D0530F09DA18EA11EA30DA358
:1039B000092F182FC801B0E0A0E0481759076A077F
:1039C0007B070CF400CEEDA0FEA0C701F3CD823042
:1039D000910509F065C08091F1019091F201E091AB
:1039E000EF01F091F0018E179F0711F4FC01319661
:1039F0008C0130E020E00DA31EA32FA338A7A70160
:103A000096018DA19EA1AFA1B8A5281B390B4A0B29
:103A10005B0BA0EDB7E00E94EA269F0150E040E07A
:103A2000CDA0DEA0EFA0F8A42C193D094E095F0936
:103A30000E94CB2669017A0101EDC01607E0D0068D
:103A4000E104F10434F020EDC22E27E0D22EE12C67
:103A5000F12CF7FE03C0C12CD12C7601A7019601F1
:103A60002059314041095109C501B4010E948F29F3
:103A700020E436E040E050E00E94CB2689019A0124
:103A8000040D151D261D371D011540E114072105E4
:103A900031050CF43FC00FEF1FE020E030E03AC0EA
:103AA00083309105F1F529A53AA5A0EDB7E00E9474
:103AB0004E2724E630E040E050E00E94CB2669012A
:103AC0007A0151EDC51657E0D506E104F10434F052
:103AD00090EDC92E97E0D92EE12CF12CA70196018B
:103AE0002059314041095109C501B4010E948F2973
:103AF00020E436E040E050E00E94CB2689019A01A4
:103B0000040D151D261D371D011560E11607210541
:103B100031050CF637FF03C000E010E09801760194
:103B20007CCD0497D1F50DA51EA5C090D701D090EE
:103B3000D8010130110521F0C090D901D090DA01EF
:103B4000960150E040E02450310941095109C50176
:103B5000B4010E948F2920E130E040E050E00E9453
:103B6000CB2689019A01040D151D261D371D01154F
:103B700040E114072105310524F00FEF1FE020E09C
:103B800030E037FF03C000E010E0980184E68C9D30
:103B900070018D9DF00C112440CD80E9E82EFF24AA
:103BA000F3943BCD86E090E00E940407BC016D7F5A
:103BB00086E090E00E94330760E0C8010E944E0852
:103BC00048CD86E090E00E940407BC016D7F86E04E
:103BD00090E00E94330760E0C7010E944E08B801E0
:103BE00083E090E09CCD882341F010E09091630346
:103BF000891303C011110C94801080914F03909190
:103C0000500310E0892B11F00C94801080914B032D
:103C100090914C031817190610F00C94AB11809179
:103C2000550390915603DC01ED91FC910284F385DC
:103C3000E02D09951F5FEACF11110C9460110C94CF
:103C4000A1111F920F920FB60F9211242F933F9341
:103C50004F935F936F937F938F939F93AF93BF9394
:103C6000EF93FF9389EF91E00E944C03FF91EF9156
:103C7000BF91AF919F918F917F916F915F914F9184
:103C80003F912F910F900FBE0F901F9018951F928C
:103C90000F920FB60F9211242F938F939F93EF9350
:103CA000FF93E0910902F0910A028081E0910F02F6
:103CB000F091100282FD1BC09081809112028F5FF3
:103CC0008F7320911302821741F0E0911202F0E00D
:103CD000E750FE4F958F80931202FF91EF919F91D5
:103CE0008F912F910F900FBE0F901F90189580818C
:103CF000F4CF1F920F920FB60F9211242F933F9380
:103D00004F935F936F937F938F939F93AF93BF93E3
:103D1000EF93FF9386E992E00E944C03FF91EF91AD
:103D2000BF91AF919F918F917F916F915F914F91D3
:103D30003F912F910F900FBE0F901F9018951F92DB
:103D40000F920FB60F9211242F938F939F93EF939F
:103D5000FF93E091A602F091A7028081E091AC026E
:103D6000F091AD0282FD1BC090818091AF028F5F08
:103D70008F732091B002821741F0E091AF02F0E022
:103D8000EA56FD4F958F8093AF02FF91EF919F917F
:103D90008F912F910F900FBE0F901F9018958081DB
:103DA000F4CF1F920F920FB60F9211242F933F93CF
:103DB0008F939F93AF93BF938091C5019091C6015C
:103DC000A091C701B091C8013091C40123E0230F35
:103DD0002D3768F126E8230F0296A11DB11D20930F
:103DE000C4018093C5019093C601A093C701B0930D
:103DF000C8018091C9019091CA01A091CB01B091F5
:103E0000CC010196A11DB11D8093C9019093CA01F7
:103E1000A093CB01B093CC01BF91AF919F918F91B3
:103E20003F912F910F900FBE0F901F901895019604
:103E3000A11DB11DD4CF1F920F920FB60F92112466
:103E40002F933F934F935F936F937F938F939F93A2
:103E5000AF93BF93EF93FF938091B900887F803633
:103E600009F44CC008F03FC0883209F4A8C018F526
:103E7000803109F49CC0B8F4882309F405C1883066
:103E800009F495C0FF91EF91BF91AF919F918F91F0
:103E90007F916F915F914F913F912F910F900FBE46
:103EA0000F901F901895883109F489C0803251F71E
:103EB0008093BB0115C0803409F4A6C048F4803358
:103EC000B9F38833F9F68093BB010E940602DACF7A
:103ED000803509F489C0883509F49EC0883491F68C
:103EE0000E94FC01CFCF883909F494C038F5883797
:103EF00029F050F4883611F0803721F683E0809362
:103F0000BC011092BA0157C0883809F483C08039C7
:103F100019F0803809F0B6CF8091BA01803208F0EC
:103F200079C0E091BA0181E08E0F8093BA0180914F
:103F3000BB00F0E0E656FE4F80833DC0803B39F089
:103F4000E0F4803A09F485C0883A09F09BCF84E018
:103F50008093BC011092990110929801E091350371
:103F6000F091360309958091980181110FC081E08D
:103F7000809398011092780109C0803C09F482C0B6
:103F8000883C09F47FC0883B09F07CCFE09199011F
:103F900081E08E0F80939901F0E0E858FE4F808118
:103FA0008093BB00909199018091980131C08091DC
:103FB000C3018093BB0085EC8093BC0063CF9091DC
:103FC000C2018091C1019817B8F58091BF0190910D
:103FD000C001E091C20121E02E0F2093C201E80F41
:103FE000F92FF11D8081E5CF2091BF013091C001F3
:103FF000E091C20181E08E0F8093C2018091BB00ED
:10400000E20FF32FF11D80839091C2018091C101D5
:10401000981788F285E8D0CF2091BF013091C00178
:10402000E091C20181E08E0F8093C2018091BB00BC
:10403000E20FF32FF11D80838091BE01811150CFDB
:1040400081E08093BD0184EA8093BC001092BC01A2
:1040500019CF0E9406028091BA01803230F4E091BB
:10406000BA01F0E0E656FE4F10826091BA0170E0AE
:10407000E0913303F09134038AE991E009951092BD
:10408000BA0100CF85ECE0CF1092BB0129CF8BE9BC
:104090009FE00197F1F708958091490390914A03B9
:1040A0000E94752A85E391E09093760380937503CF
:1040B0008091830390918403009711F00E94752AE8
:1040C0008091880390918903009711F00C94752AD0
:1040D00008951092FC011092FB0188EE93E0A0E09D
:1040E000B0E08093FD019093FE01A093FF01B09397
:1040F00000022BE131E03093FA012093F9014DECFD
:1041000050E050930602409305024CEC50E050936F
:1041100008024093070248EC50E050930A02409393
:10412000090249EC50E050930C0240930B024AEC18
:1041300050E050930E0240930D024EEC50E050932D
:10414000100240930F02109212021092130210926A
:104150001402109215021092990210929802809304
:104160009A0290939B02A0939C02B0939D0230937D
:1041700097022093960225EC30E03093A30220931F
:10418000A20224EC30E03093A5022093A40220EC9C
:1041900030E03093A7022093A60221EC30E0309368
:1041A000A9022093A80222EC30E03093AB022093C6
:1041B000AA0226EC30E03093AD022093AC021092BC
:1041C000AF021092B0021092B1021092B20210929D
:1041D0007803109277038093790390937A03A093E6
:1041E0007B03B0937C0385E391E090937603809307
:1041F000750380E290E090938203809381030E9494
:10420000D92990938403809383031092850310929D
:1042100086031092870380E290E00E94D929909350
:1042200089038093880310928A0310928B03109263
:104230008C0389E594E0909392038093910387E740
:1042400094E090939403809393038DED91E0909389
:1042500096038093950381EE91E090939803809369
:1042600097038EE595E090939A03809399038EE0EF
:1042700095E090939C0380939B0387EE94E090934A
:104280009E0380939D0384EF91E09093A00380931D
:104290009F038CEF91E09093A2038093A10386E0AB
:1042A00092E09093A4038093A3038AEA95E090930D
:1042B0003403809333038EE995E090933603809323
:1042C0003503109241031092400310924303109261
:1042D000420381E08093440386E090E00E94D92964
:1042E00090933F0380933E03892B31F081E090E06F
:1042F000909341038093400310923A031092390344
:1043000010923C0310923B0381E080933D0388E0D0
:1043100090E00E94D9299093380380933703892B2A
:1043200031F081E090E090933A038093390310924A
:104330004A031092490310924C0310924B031092BF
:104340004D0381E080934E031092500310924F036F
:104350002CEB31E0309352032093510330935403FC
:10436000209353032FEF3FEF3093580320935703CD
:104370008093590310925E0310925F0310926003C2
:10438000109261031092620310926403109265030D
:1043900010926603109267031092690310926803EB
:1043A00010926B0310926A0310926D0310926C03CB
:1043B00010926F0310926E031092710310927003AB
:1043C0008DE790E0909373038093720310927403CF
:1043D0008DE291E090934803809347031092460347
:1043E000109245030895CF93DF93CDB7DEB7A8971A
:1043F0000FB6F894DEBF0FBECDBF789484B583604E
:1044000084BD85B5836085BD80916E008160809399
:104410006E0082E0809381008091810081608093B2
:104420008100809180008160809380008091B10044
:1044300084608093B1008091B00081608093B0006F
:1044400080919100836080939100809190008160C1
:10445000809390008091A10083608093A10080915F
:10446000A00081608093A00087E880937A0010927A
:10447000C10083E00E940C0284E00E940C0261E013
:1044800084E00E94EE0382E390E00E94A126893638
:1044900009F4DEC061E090E080E00E94B92618A631
:1044A0001FA242E050E068E070E0CE0187960E94D3
:1044B000A9266AE082E090E00E94B92660E084E0EC
:1044C00090E00E94B92688EE93E09EA38DA342E07F
:1044D00050E06AE070E0CE0185960E94A9268AEF3E
:1044E00090E09CA38BA342E050E06CE070E0CE0132
:1044F00083960E94A92688E8E82E83E1F82EFAA286
:10450000E9A242E050E06EE070E0CE0181960E94A8
:10451000A92683E393E098A38F8F42E050E060E107
:1045200070E0CE014F960E94A9268FEF9FE09E8FEC
:104530008D8F42E050E062E170E0CE014D960E9426
:10454000A9268AE090E09C8F8B8F42E050E066E0E5
:1045500070E0CE014B960E94A92604EF11E01A8F5D
:10456000098F42E050E066E170E0CE0149960E947A
:10457000A926F88EEF8A42E050E068E170E0CE01B3
:1045800047960E94A9261E8B0D8B42E050E06CE1FD
:1045900070E0CE0145960E94A926FC8AEB8A42E093
:1045A00050E060E270E0CE0143960E94A9261A8B8B
:1045B000098B42E050E062E270E0CE0141960E9439
:1045C000A926188A1F8642E050E064E270E0CE011E
:1045D0000F960E94A9268AE590E09E878D8742E08B
:1045E00050E066E270E0CE010D960E94A92685E0BB
:1045F00090E09C878B8742E050E068E270E0CE015B
:104600000B960E94A9261A86198642E050E06CE2B9
:1046100070E0CE0109960E94A92684E190E0988777
:104620008F8342E050E06EE270E0CE0107960E9478
:10463000A9261A82198242E050E060E370E0CE01C0
:1046400001960E94A92669E682E390E00E94B926BD
:1046500090E080E00E94A126F82E8FEF8F0D873F1B
:1046600010F0FF24F39442E050E068E070E087EF40
:1046700091E00E94912682E090E00E94A126809322
:10468000F60181508F3018F08AE08093F60184E0C3
:1046900090E00E94A1268093F501853610F01092DB
:1046A000F50142E050E06AE070E083EF91E00E94A3
:1046B00091268091F3019091F401892B31F488EED9
:1046C00093E09093F4018093F30142E050E06CE0BA
:1046D00070E081EF91E00E9491268091F10190912C
:1046E000F201813E9E4230F08AEF90E09093F20119
:1046F0008093F10142E050E06EE070E08FEE91E0D7
:104700000E9491268091EF019091F001813E9E429E
:1047100030F088E893E19093F0018093EF012091CD
:10472000F1013091F2018091EF019091F001281791
:10473000390760F08AEF90E09093F2018093F101E5
:1047400088E893E19093F0018093EF0142E050E01C
:1047500060E170E08DEE91E00E9491268091ED0184
:104760009091EE018115904130F083E393E09093B6
:10477000EE018093ED0142E050E062E170E08BEEEB
:1047800091E00E9491268091EB019091EC018115BE
:10479000904130F08FEF9FE09093EC018093EB011C
:1047A00042E050E066E070E089EE91E00E949126E0
:1047B0008091E9019091EA0101978436910530F0EA
:1047C0008AE090E09093EA018093E90142E050E0B2
:1047D00066E170E087EE91E00E9491268091E7010A
:1047E0009091E801813E9E4230F084EF91E09093F9
:1047F000E8018093E70142E050E068E170E085EE77
:1048000091E00E9491268091E5019091E601813E20
:104810009E4230F088E893E19093E6018093E501B1
:1048200042E050E060E270E083EE91E00E94912669
:104830008091E3019091E401813E9E4230F088E84E
:1048400093E19093E4018093E30142E050E062E25F
:1048500070E081EE91E00E9491268091E1019091BB
:10486000E201813E9E4230F084EF91E09093E201BC
:104870008093E1012091E3013091E4018091E10115
:104880009091E2018217930760F088E893E190939A
:10489000E4018093E30184EF91E09093E20180933F
:1048A000E10142E050E064E270E08FED91E00E94AF
:1048B00091268091DF019091E001059720F0109200
:1048C000E0011092DF0142E050E066E270E08DED21
:1048D00091E00E9491268091DD019091DE010A977E
:1048E0008B35910530F08AE590E09093DE0180935E
:1048F000DD0142E050E068E270E08BED91E00E9463
:1049000091268091DB019091DC010197C29730F0F4
:1049100085E090E09093DC018093DB0142E050E081
:104920006CE270E089ED91E00E9491268091D901BE
:104930009091DA01459720F01092DA011092D90196
:1049400042E050E06EE270E087ED91E00E94912637
:104950008091D7019091D801459730F084E190E0A3
:104960009093D8018093D70142E050E060E370E07B
:1049700085ED91E00E9491268091D5019091D6011C
:10498000459720F01092D6011092D501E091A60231
:10499000F091A70222E02083E091A202F091A3020D
:1049A0001082E091A402F091A5028FEC8083109216
:1049B000AE02E091AA02F091AB0296E09083E09102
:1049C000A802F091A902808188698083E091A80201
:1049D000F091A90280818F7D8083E0910902F0919E
:1049E0000A022083E0910502F09106021082E09114
:1049F0000702F091080280E1808310921102E09199
:104A00000D02F0910E029083E0910B02F0910C02E6
:104A1000808188698083E0910B02F0910C02808193
:104A20008F7D8083109285031092860310928A03F3
:104A300010928B03E0919103F09192030995E0911C
:104A40009703F091980360E87AE186E090E0099599
:104A50008091450390914603009711F00E94752ABA
:104A600086E090E00E94D9298C0180E6F8018083DD
:104A700085E793E092838183138280E290E09583BF
:104A8000848310934603009345031092850310928C
:104A9000860310928A0310928B03E0919103F091A8
:104AA00092030995EE24E394F801E382C8010E9481
:104AB000790687EA9FE0A0E0B0E080935A039093E4
:104AC0005B03A0935C03B0935D0386E992E090934F
:104AD00056038093550383E090E0909358038093AE
:104AE0005703E09259030E940C02609159036E250E
:104AF000809157030E94EE03F092630370E060E040
:104B000090E080E00E94B70A70E060E081E090E011
:104B10000E94B70A70E060E082E090E00E94B70A6D
:104B200070E060E083E090E00E94B70A70E060E02F
:104B300084E090E00E94B70A70E060E085E090E0D9
:104B40000E94B70A70E060E086E090E00E94B70A39
:104B500070E060E087E090E00E94B70A70E060E0FB
:104B600088E090E00E94B70A70E060E089E090E0A1
:104B70000E94B70A6F2D70E08AE090E00E94B70AA9
:104B80006091E9017091EA018BE090E00E94B70A20
:104B90006091F60170E08CE090E00E94B70A6091AD
:104BA000F50170E08DE090E00E94B70A6091E701A6
:104BB0007091E8018EE090E00E94B70A6091E501F3
:104BC0007091E6018FE090E00E94B70A6091F101D8
:104BD0007091F20180E190E00E94B70A6091EF01CC
:104BE0007091F00181E190E00E94B70A6091ED01BF
:104BF0007091EE0182E190E00E94B70A6091EB01B2
:104C00007091EC0183E190E00E94B70A70E060E0EF
:104C100084E190E00E94B70A6091E3017091E401A1
:104C200085E190E00E94B70A6091E1017091E20194
:104C300086E190E00E94B70A6091DF017091E00187
:104C400087E190E00E94B70A6091DD017091DE017A
:104C500088E190E00E94B70A6091DB017091DC016D
:104C600089E190E00E94B70A6091D9017091DA0160
:104C70008AE190E00E94B70A6091D7017091D80153
:104C80008BE190E00E94B70A6091D5017091D60146
:104C90008CE190E00E94B70A64EF71E080E090E060
:104CA0000E94A90486E0E1E1F1E0DE0111960190A5
:104CB0000D928A95E1F746E050E0BE016F5F7F4FAD
:104CC00089EF91E00E94CE0264E670E080E090E01F
:104CD0000E94A90489EF91E00E942C03181619067E
:104CE0002CF489EF91E00E940A03F4CF0E94C208DD
:104CF0000E94DB046093D1017093D2018093D301B1
:104D00009093D4010E94DB046093CD017093CE0197
:104D10008093CF019093D0010E945F0B0E94DB0330
:104D2000FBCFDC01CB01FC01F999FECF06C0F2BD3F
:104D3000E1BDF89A319600B40D9241505040B8F759
:104D40000895F999FECF92BD81BDF89A992780B553
:104D50000895DC01A40FB51F4150504048F0CB012D
:104D6000840F951F2E910E94BA2641505040D0F7D3
:104D70000895262FF999FECF92BD81BDF89A01972B
:104D800000B4021639F01FBA20BD0FB6F894FA9A93
:104D9000F99A0FBE0895052E97FB1EF400940E9409
:104DA000E22657FD07D00E942C2707FC03D04EF4C3
:104DB0000C94E22650954095309521953F4F4F4FEA
:104DC0005F4F089590958095709561957F4F8F4FB7
:104DD0009F4F08950E944E27A59F900DB49F900D60
:104DE000A49F800D911D112408952F923F924F9200
:104DF0005F926F927F928F929F92AF92BF92CF926B
:104E0000DF92EF92FF920F931F93CF93DF93CDB773
:104E1000DEB7CA1BDB0B0FB6F894DEBF0FBECDBFEB
:104E200009942A88398848885F846E847D848C84BC
:104E30009B84AA84B984C884DF80EE80FD800C81C5
:104E40001B81AA81B981CE0FD11D0FB6F894DEBFA8
:104E50000FBECDBFED010895A1E21A2EAA1BBB1B08
:104E6000FD010DC0AA1FBB1FEE1FFF1FA217B30736
:104E7000E407F50720F0A21BB30BE40BF50B661F4C
:104E8000771F881F991F1A9469F760957095809510
:104E900090959B01AC01BD01CF010895A29FB00187
:104EA000B39FC001A39F700D811D1124911DB29F5E
:104EB000700D811D1124911D08955058BB27AA27FC
:104EC0000E9475270C94E8280E94DA2838F00E9486
:104ED000E12820F039F49F3F19F426F40C94D728E8
:104EE0000EF4E095E7FB0C94D128E92F0E94F928F5
:104EF00058F3BA17620773078407950720F079F40F
:104F0000A6F50C941B290EF4E0950B2EBA2FA02DBC
:104F10000B01B90190010C01CA01A0011124FF2766
:104F2000591B99F0593F50F4503E68F11A16F04061
:104F3000A22F232F342F4427585FF3CF4695379560
:104F40002795A795F0405395C9F77EF41F16BA0B25
:104F5000620B730B840BBAF09150A1F0FF0FBB1FD3
:104F6000661F771F881FC2F70EC0BA0F621F731F1C
:104F7000841F48F4879577956795B795F7959E3F79
:104F800008F0B0CF9395880F08F09927EE0F97950A
:104F9000879508950E94AD2808F481E008950E9445
:104FA000E3270C94E8280E94E12858F00E94DA28B0
:104FB00040F029F45F3F29F00C94D12851110C9452
:104FC0001C290C94D7280E94F92868F39923B1F37F
:104FD000552391F3951B550BBB27AA27621773071F
:104FE000840738F09F5F5F4F220F331F441FAA1FB3
:104FF000A9F335D00E2E3AF0E0E832D0915050406F
:10500000E695001CCAF72BD0FE2F29D0660F771F1C
:10501000881FBB1F261737074807AB07B0E809F002
:10502000BB0B802DBF01FF2793585F4F3AF09E3F87
:10503000510578F00C94D1280C941C295F3FE4F3BF
:10504000983ED4F3869577956795B795F7959F5FCA
:10505000C9F7880F911D9695879597F90895E1E016
:10506000660F771F881FBB1F621773078407BA0775
:1050700020F0621B730B840BBA0BEE1F88F7E095D0
:1050800008950E94012988F09F5798F0B92F992719
:10509000B751B0F0E1F0660F771F881F991F1AF023
:1050A000BA95C9F714C0B13091F00E941B29B1E044
:1050B00008950C941B29672F782F8827B85F39F043
:1050C000B93FCCF3869577956795B395D9F73EF4BC
:1050D00090958095709561957F4F8F4F9F4F089564
:1050E000E89409C097FB3EF4909580957095619582
:1050F0007F4F8F4F9F4F9923A9F0F92F96E9BB2738
:105100009395F695879577956795B795F111F8CFB3
:10511000FAF4BB0F11F460FF1BC06F5F7F4F8F4F1E
:105120009F4F16C0882311F096E911C0772321F014
:105130009EE8872F762F05C0662371F096E8862FAC
:1051400070E060E02AF09A95660F771F881FDAF703
:10515000880F9695879597F90895990F0008550F30
:10516000AA0BE0E8FEEF16161706E807F907C0F0ED
:1051700012161306E407F50798F0621B730B840BF5
:10518000950B39F40A2661F0232B242B252B21F4CF
:1051900008950A2609F4A140A6958FEF811D811D6F
:1051A000089597F99F6780E870E060E008959FEFA9
:1051B00080EC089500240A941616170618060906AE
:1051C000089500240A94121613061406050608957D
:1051D000092E0394000C11F4882352F0BB0F40F405
:1051E000BF2B11F460FF04C06F5F7F4F8F4F9F4F45
:1051F000089557FD9058440F551F59F05F3F71F0C7
:105200004795880F97FB991F61F09F3F79F087952D
:105210000895121613061406551FF2CF4695F1DFB6
:1052200008C0161617061806991FF1CF8695710546
:10523000610508940895E894BB2766277727CB017A
:1052400097F908950E9435290C94E8280E94DA28DD
:1052500038F00E94E12820F0952311F00C94D12819
:105260000C94D72811240C941C290E94F92870F35F
:10527000959FC1F3950F50E0551F629FF001729FFB
:10528000BB27F00DB11D639FAA27F00DB11DAA1F0A
:10529000649F6627B00DA11D661F829F2227B00D57
:1052A000A11D621F739FB00DA11D621F839FA00DE2
:1052B000611D221F749F3327A00D611D231F849F32
:1052C000600D211D822F762F6A2F11249F57504089
:1052D0009AF0F1F088234AF0EE0FFF1FBB1F661F04
:1052E000771F881F91505040A9F79E3F510580F0CD
:1052F0000C94D1280C941C295F3FE4F3983ED4F31E
:10530000869577956795B795F795E7959F5FC1F770
:10531000FE2B880F911D9695879597F90895DB01CF
:105320008F939F930E94EA26BF91AF91A29F800D19
:10533000911DA39F900DB29F900D11240895991B6C
:1053400079E004C0991F961708F0961B881F7A957C
:10535000C9F780950895AA1BBB1B51E107C0AA1F7E
:10536000BB1FA617B70710F0A61BB70B881F991F06
:105370005A95A9F780959095BC01CD01089597FBAA
:10538000072E16F4009407D077FD09D00E94AB29B0
:1053900007FC05D03EF4909581959F4F0895709538
:1053A00061957F4F0895EE0FFF1F0590F491E02D5A
:1053B00009940F931F93CF93DF938230910510F4DC
:1053C00082E090E0E091A703F091A80330E020E0B4
:1053D000B0E0A0E0309799F42115310509F44AC0F6
:1053E000281B390B24303105D8F58A819B81611542
:1053F000710589F1FB0193838283FE0111C0408115
:1054000051810281138148175907E0F04817590765
:1054100099F4109761F012960C93129713961C93BF
:105420003296CF01DF91CF911F910F910895009394
:10543000A7031093A803F4CF2115310551F04217AB
:10544000530738F0A901DB019A01BD01DF01F80122
:10545000C1CFEF01F9CF9093A8038093A703CDCFDD
:10546000FE01E20FF31F819391932250310939839A
:105470002883D7CF2091A5033091A603232B41F495
:105480002091090130910A013093A6032093A503CE
:1054900020910701309108012115310541F42DB704
:1054A0003EB740910B0150910C01241B350BE0914C
:1054B000A503F091A603E217F307A0F42E1B3F0B00
:1054C0002817390778F0AC014E5F5F4F2417350776
:1054D00048F04E0F5F1F5093A6034093A50381939E
:1054E00091939FCFF0E0E0E09CCFCF93DF930097C4
:1054F000E9F0FC01329713821282A091A703B091C8
:10550000A803ED0130E020E01097A1F42081318163
:10551000820F931F2091A5033091A6032817390706
:1055200009F061C0F093A603E093A503DF91CF914A
:105530000895EA01CE17DF07E8F54A815B819E01F5
:1055400041155105B1F7E901FB83EA83499159916E
:10555000C40FD51FEC17FD0761F48081918102967D
:10556000840F951FE90199838883828193819B83AE
:105570008A83F0E0E0E012968D919C91139700975A
:10558000B9F52D913C911197CD010296820F931F91
:105590002091A5033091A6032817390739F63097D3
:1055A00051F51092A8031092A703B093A603A093FD
:1055B000A503BCCFD383C28340815181840F951F43
:1055C000C817D90761F44E5F5F4F88819981480FF2
:1055D000591F518340838A819B8193838283211544
:1055E000310509F0B0CFF093A803E093A7039ECF55
:1055F000FD01DC01C0CF13821282D7CFB0E0A0E062
:10560000E4E0FBE20C94F7268C01009751F4CB0107
:105610000E94D9298C01C801CDB7DEB7E0E10C9416
:105620001327FC01E60FF71F9C0122503109E217F6
:10563000F30708F49DC0D901CD91DC911197C617ED
:10564000D70798F0C530D10530F3CE0104978617FF
:10565000970708F3C61BD70B2297C193D1936D937D
:105660007C93CF010E94752AD6CF5B01AC1ABD0A8C
:105670004C018C0E9D1EA091A703B091A803512C44
:10568000412CF12CE12C109731F58091A5039091DC
:10569000A6038815990509F05CC04616570608F060
:1056A00058C08091070190910801009741F48DB78F
:1056B0009EB740910B0150910C01841B950BE8178C
:1056C000F90708F055C0F093A603E093A503F9018C
:1056D00071836083A0CF8D919C91119712966C90ED
:1056E000129713967C901397A815B90559F56C017C
:1056F00042E0C40ED11CCA14DB0420F1AC014A19EB
:105700005B09DA011296159780F0628273825183E9
:105710004083D9016D937C93E114F10471F0D701BA
:105720001396FC93EE93129776CF22968C0F9D1FC3
:10573000F90191838083F301EFCFF093A803E09305
:10574000A70369CF4816590608F42C017D01D3013F
:105750009ACFCB010E94D9297C01009749F0AE0174
:10576000B8010E94BB2BC8010E94752A870153CF44
:1057700010E000E050CFFB01DC0102C001900D926F
:1057800041505040D8F7089511E0C1E9D1E004C07C
:10579000FE010E94D3292196C239D107C9F7F89496
:0257A000FFCF39
:1057A200FFFF000080BF010000A90380005A04042B
:1057B200625A0603000063000000006E03CE02FB83
:1057C20002BB032C030A031E0300000000B40604FC
:1057D200080000000033060206A506D505FC05EB0D
:0457E20005D60500E3
:00000001FF
